:020000040800F2
:100000000080012079100008750F00087D0F00089E
:10001000850F00088D0F0008950F000800000000F4
:100020000000000000000000000000009D0F00081C
:10003000AB0F000800000000B90F0008C70F000850
:10004000C9100008C9100008C9100008C91000082C
:10005000C9100008C9100008C9100008C91000081C
:10006000C9100008C9100008C9100008C91000080C
:10007000C9100008C9100008C9100008C9100008FC
:10008000C9100008C9100008C910000800000000CD
:10009000000000000000000000000000C91000087F
:1000A000C9100008C9100008C9100008C9100008CC
:1000B000C9100008C9100008C9100008C9100008BC
:1000C000C9100008C9100008C9100008C9100008AC
:1000D000D50F0008C9100008C91000080000000072
:1000E000C9100008C9100008C9100008000000006D
:1000F000000000000000000000000000C91000081F
:1001000000000000C9100008C9100008C91000084C
:1001100000000000000000000000000000000000DF
:10012000C9100008C9100008C9100008C91000084B
:10013000C9100008000000000000000000000000DE
:10014000000000000000000000000000C9100008CE
:10015000C9100008C9100008C9100008C91000081B
:10016000C9100008C91000080000000000000000CD
:10017000000000000000000000000000000000007F
:1001800000000000C910000800000000000000008E
:04019000C91000088A
:1001A00010B5054C237833B9044B13B10448AFF3B1
:1001B00000800123237010BDB0000020000000006B
:1001C0009042000808B5034B1BB103490348AFF345
:1001D000008008BD00000000B4000020904200082C
:1001E000034613F8012B002AFBD1181A0138704777
:1001F00001F0FF01102A2BDB10F0070F08D010F8D8
:10020000013B013A8B422DD010F0070F42B3F6D1DB
:10021000F0B441EA012141EA014122F007047FF0F4
:1002200000070023F0E80256083C85EA010586EA4B
:10023000010685FA47F5A3FA87F586FA47F6A5FA87
:1002400087F68EB9EED1F0BC01F0FF0102F0070293
:1002500032B110F8013B013A83EA010313B1F8D13E
:100260000020704701387047002D06BF354603381F
:10027000073815F0010F07D1013015F4807F02BF58
:10028000013015F4C03F0130F0BC0138704700BFA9
:1002900053B94AB9002908BF00281CBF4FF0FF31ED
:1002A0004FF0FF3000F06AB9ADF1080C6DE904CEF3
:1002B00000F006F8DDF804E0DDE9022304B0704741
:1002C0002DE9F047089D0C46002B4ED194468C45F5
:1002D0008646B2FA82F262D94AB1C2F12003914055
:1002E00020FA03F30CFA02FC194300FA02FE4FEA6B
:1002F0001C471FFA8CF6B1FBF7F44FEA1E4307FBCD
:10030000141143EA014304FB06F199420AD91CEB9C
:10031000030304F1FF3080F01281994240F20F8113
:10032000023C6344591A1FFA8EF3B1FBF7F007FB46
:10033000101143EA014300FB06F69E420AD91CEB6A
:10034000030300F1FF3180F0FC809E4240F2F9800F
:10035000634402389B1B40EA044000211DB1D34096
:100360000022C5E90032BDE8F0878B4205D90DB106
:10037000C5E9000100210846F5E7B3FA83F1002939
:1003800046D1A34202D39042C0F0F080861A64EBBB
:1003900003030120002DE6D0C5E90063E3E7002A4E
:1003A00040F09080A1EB0C044FEA1C481FFA8CF738
:1003B0000121B4FBF8F64FEA1E4308FB164443EA5A
:1003C000044307FB06F0984208D91CEB030306F12F
:1003D000FF3402D2984200F2CD8026461C1A1FFA42
:1003E0008EF3B4FBF8F008FB104443EA044300FB2F
:1003F00007F79F4208D91CEB030300F1FF3402D238
:100400009F4200F2B0802046DB1B40EA0640A5E791
:10041000C1F120068B4022FA06F71F4320FA06FCA2
:1004200004FA01F343EA0C03F44000FA01F8380C33
:100430004FEA1349B4FBF0FE1FFA87FC00FB1E4491
:1004400049EA04440EFB0CF9A14502FA01F20AD96B
:100450003C190EF1FF3A80F08480A14540F2818082
:10046000AEF1020E3C44A4EB09041FFA83F9B4FB7D
:10047000F0F300FB134449EA044403FB0CFCA445DD
:1004800007D93C1903F1FF3067D2A44565D9023B77
:100490003C4443EA0E40A0FB0293A4EB0C049C42B4
:1004A000CE469C4651D34ED055B1B8EB0E0364EB0B
:1004B0000C0404FA06F6CB401E43CC40C5E90064A8
:1004C000002150E7C2F1200320FA03F10CFA02FCEC
:1004D00024FA03F394400C434FEA1C4800FA02FE4E
:1004E0001FFA8CF7B3FBF8F008FB1031230C43EA3A
:1004F000014300FB07F1994208D91CEB030300F10B
:10050000FF362CD299422AD9023863445B1AA4B22E
:10051000B3FBF8F108FB113344EA034401FB07F392
:10052000A34208D91CEB040401F1FF3613D2A34205
:1005300011D902396444E41A41EA004139E704461A
:10054000F0E6084606E7C845AED2B9EB020E63EB0B
:10055000070C0138A8E73146EDE7034699E7304636
:10056000D4E7D6467FE7634402384DE70646234684
:1005700008460FE7023E634430E700BF704700BF04
:1005800080B500AF012280210A4801F005F9C8209A
:1005900000F00EFE00228021064801F0FDF8C82080
:1005A00000F006FE01228021024801F0F5F800BFAC
:1005B00080BD00BF0008024080B500AF00BF4FF40F
:1005C0000071044801F0D0F80346012BF7D000BFBA
:1005D00000BF80BD0000024080B582B000AF03467E
:1005E000FB71002240210A4801F0D6F8FB79194638
:1005F0004FF0FF330122074801F009FE012240219C
:10060000034801F0C9F800BF0837BD4680BD00BFF0
:1006100000040240CC00002080B582B000AF034649
:100620000A46FB711346BB71104B1A78FB791343D2
:10063000DAB20F4B1A700E4B00225A700C4ABB797B
:100640009370002240210B4801F0A6F84FF0FF33D1
:1006500003220749084801F0DAFD0122402105483C
:1006600001F09AF800BF0837BD4680BD01000020A8
:100670004C00002000040240CC00002080B584B073
:1006800000AF0346FB710023FB73164B1A78FB790E
:100690001343DAB2144B1A70134B00225A70002223
:1006A0004021124801F078F84FF0FF3303220E4941
:1006B0000F4801F0ACFD4FF0FF3301220D490C480B
:1006C00001F0E9FE01224021084801F065F86420AC
:1006D00000F06EFD074B1B78FB73FB7B1846103751
:1006E000BD4680BD000000204800002000040240FC
:1006F000CC000020DC01002080B582B000AF0023D8
:10070000FB71FFF759FF074B1B781846FFF7B6FF41
:100710000346FB71FB791B09FB71FB79184608370F
:10072000BD4680BDF101002080B582B000AFFFF76B
:1007300043FF164A3B4692E80300186004331970E1
:10074000134B1A78134B1A70124B03225A70002263
:100750004021114801F020F84FF0FF3302220D49EB
:100760000E4801F054FD39464FF0FF3304220B4888
:1007700001F04DFD01224021074801F00DF8012054
:1007800000F016FD00BF0837BD4680BDA842000836
:10079000010000204C00002000040240CC0000209A
:1007A00080B582B000AF00237B601C4B1A781C4BD5
:1007B0001A70012000F0FCFCFFF7FEFE0022402131
:1007C000184800F0E9FF4FF0FF33012214491648A2
:1007D00001F01DFD14220021144803F0D9F84FF058
:1007E000FF3303221149104801F055FE0122402138
:1007F0000C4800F0D1FF0D4B9B781A040B4B5B7833
:100800001B021343094A127813437B600A2000F04D
:10081000CFFC7B6818460837BD4680BD030000202A
:100820004C00002000040240CC000020DC0100202D
:1008300080B584B000AF0346FB711B4B1A78FB797F
:100840001B015BB243F008035BB2DBB219461046F2
:10085000FFF7E2FE154B1B781846FFF7BDFE144B61
:100860001B781846FFF7B8FEFFF79AFFF860F868A4
:1008700000F026F8142200210E4803F089F8FA68E7
:100880000D490C4803F064F80A48FFF7A9FC034639
:100890009AB24FF0FF330749084802F09DFCFB680D
:1008A00018461037BD4680BD04000020020000201D
:1008B000F0010020DC010020B04200087C01002093
:1008C00080B584B000AF78607B681B0CDBB23B73F3
:1008D0007B681B0ADBB27B737B68DBB2BB730022D5
:1008E0004FF480510E4800F057FF012000F060FCEB
:1008F00007F10C03032219460A4802F08FF800BFE3
:10090000084802F00DFA0346012BF9D101224FF4F9
:100910008051034800F040FF00BF1037BD4680BD46
:10092000000402402401002080B582B000AF78604E
:100930007B681B68064A934205D101224FF480511F
:10094000044800F029FF00BF0837BD4680BD00BF46
:10095000003800400004024080B582B000AF00F0D3
:10096000B5FB00F05FF800F061F900F035F900F038
:10097000C3F800F0F7F801224021234800F00CFFF3
:100980000023FB71FFF7FCFD0C2200211F4802F041
:10099000FFFF0C2200211E4802F0FAFF1422002162
:1009A0001C4802F0F5FFFFF7A7FE0346FB71FB7939
:1009B000032B11D11848FFF713FC03469AB24FF0EE
:1009C000FF331549154802F007FCFFF7ADFE4FF461
:1009D0007A7000F0EDFB0CE01148FFF701FC0346D4
:1009E0009AB24FF0FF330E490C4802F0F5FB00BFFE
:1009F000FDE70020FFF71CFF38604FF47A7000F02D
:100A0000D7FB00BFF5E700BF00040240C40100208F
:100A1000D0010020DC010020080000207C01002023
:100A20002000002080B594B000AF07F120033022F1
:100A30000021184602F0ACFF07F10C0300221A60F7
:100A40005A609A60DA601A610023BB60284B1B6C05
:100A5000274A43F080531364254B1B6C03F08053EB
:100A6000BB60BB6800237B60224B1B6823F44043C0
:100A7000204A43F4004313601E4B1B6803F44043B9
:100A80007B607B6802233B620123FB6210233B6394
:100A90000223BB630023FB6308233B6440237B6486
:100AA0000223BB640723FB6407F12003184600F010
:100AB0008DFE0346002B01D000F048F90F23FB60A8
:100AC00002233B6100237B614FF48053BB61002311
:100AD000FB6107F10C030221184601F0EFF8034611
:100AE000002B01D000F032F900BF5037BD4680BD69
:100AF000003802400070004080B500AF174B184A24
:100B00001A60164B4FF482725A60144B00229A609E
:100B1000124B0022DA60114B02221A610F4B0022A5
:100B20005A610E4B4FF400729A610C4B2022DA612D
:100B30000A4B00221A62094B00225A62074B00221C
:100B40009A62064B0A22DA62044801F0D7FA034699
:100B5000002B01D000F0FAF800BF80BDCC000020CF
:100B60000030014080B500AF194B1A4A1A60184B8B
:100B700000225A60164B00229A60154B0022DA6060
:100B8000134B00221A61124B00225A61104B4FF492
:100B900000729A610E4B00221A620D4B00225A62BB
:100BA0000B4B00229A620A4B0A22DA62084801F0D3
:100BB000A5FA0346002B01D000F0C8F8002200215E
:100BC000242000F0F4FB242000F00DFC00BF80BDC9
:100BD000240100200038004080B500AF114B124ABC
:100BE0001A60104B4FF4E1325A600E4B00229A60AB
:100BF0000C4B0022DA600B4B00221A61094B0C22CD
:100C00005A61084B00229A61064B0022DA610548BE
:100C100002F092FA0346002B01D000F097F800BFD3
:100C200080BD00BF7C0100200044004080B58AB038
:100C300000AF07F1140300221A605A609A60DA606C
:100C40001A6100233B613D4B1B6B3C4A43F004039C
:100C500013633A4B1B6B03F004033B613B690023B6
:100C6000FB60364B1B6B354A43F080031363334BF9
:100C70001B6B03F08003FB60FB680023BB602F4B02
:100C80001B6B2E4A43F0010313632C4B1B6B03F0C9
:100C90000103BB60BB6800237B60284B1B6B274AAA
:100CA00043F002031363254B1B6B03F002037B60CD
:100CB0007B6800228021224800F06EFD0022402146
:100CC000204800F069FD4FF400537B614FF404139A
:100CD000BB610023FB6107F114031946184800F0BB
:100CE000BFFB80237B610123BB610023FB610023E9
:100CF0003B6207F114031946114800F0B1FB4FF4B1
:100D000000737B610023BB610023FB6107F11403C7
:100D100019460D4800F0A4FB40237B610123BB6111
:100D20000023FB6100233B6207F1140319460548C9
:100D300000F096FB00BF2837BD4680BD003802405A
:100D400000080240000402400000024080B400AFEE
:100D500072B600BF00BFFDE780B582B000AF0023D0
:100D60007B60104B5B6C0F4A43F4804353640D4B24
:100D70005B6C03F480437B607B6800233B60094B22
:100D80001B6C084A43F080531364064B1B6C03F042
:100D900080533B603B68072000F0FEFA00BF083735
:100DA000BD4680BD0038024080B58CB000AF786091
:100DB00007F11C0300221A605A609A60DA601A6117
:100DC0007B681B68414A93422CD10023BB61404B96
:100DD0005B6C3F4A43F4805353643D4B5B6C03F4BC
:100DE0008053BB61BB6900237B61394B1B6B384A65
:100DF00043F001031363364B1B6B03F001037B616C
:100E00007B69E023FB6102233B6200237B620323B7
:100E1000BB620523FB6207F11C0319462D4800F055
:100E20001FFB4FE07B681B682B4A93424AD100238B
:100E30003B61274B1B6C264A43F480431364244BCD
:100E40001B6C03F480433B613B690023FB60204B38
:100E50001B6B1F4A43F0040313631D4B1B6B03F012
:100E60000403FB60FB680023BB60194B1B6B184A33
:100E700043F002031363164B1B6B03F00203BB60CA
:100E8000BB680C23FB6102233B6200237B620323CC
:100E9000BB620523FB6207F11C0319460F4800F0F3
:100EA000DFFA4FF4A053FB6102233B6200237B6215
:100EB0000323BB620523FB6207F11C0319460848A4
:100EC00000F0CEFA00BF3037BD4680BD0030014093
:100ED0000038024000000240003800400008024094
:100EE0000004024080B58AB000AF786007F11403B7
:100EF00000221A605A609A60DA601A617B681B6887
:100F0000194A93422BD100233B61184B1B6C174AA3
:100F100043F400331364154B1B6C03F400333B6143
:100F20003B690023FB60114B1B6B104A43F001032C
:100F300013630E4B1B6B03F00103FB60FB680C2378
:100F40007B610223BB610023FB6100233B6207231B
:100F50007B6207F114031946054800F081FA00BFCF
:100F60002837BD4680BD00BF004400400038024025
:100F70000000024080B400AF00BFFDE780B400AFC6
:100F800000BFFDE780B400AF00BFFDE780B400AF55
:100F900000BFFDE780B400AF00BFFDE780B400AF45
:100FA00000BFBD465DF8047B704780B400AF00BF52
:100FB000BD465DF8047B704780B400AF00BFBD46FE
:100FC0005DF8047B704780B500AF00F0D1F800BF3A
:100FD00080BD000080B500AF024801F0A3FD00BF56
:100FE00080BD00BF2401002080B586B000AF7860CE
:100FF000144A154BD31A7B617B693B61134B1B6809
:10100000002B02D1114B124A1A60104B1A687B68F0
:1010100013443A699A4207D202F0C2FC03460C22FA
:101020001A604FF0FF3309E0084B1B68FB60074B69
:101030001A687B681344054A1360FB681846183722
:10104000BD4680BD0080012000040000F4010020A6
:101050004803002080B400AF064BD3F88830054A1F
:1010600043F47003C2F8883000BFBD465DF8047BCE
:10107000704700BF00ED00E0DFF834D0FFF7EAFF73
:101080000C480D490D4A002302E0D458C4500433E3
:10109000C4188C42F9D30A4A0A4C002301E01360B9
:1010A0000432A242FBD302F081FCFFF755FC7047EB
:1010B0000080012000000020B00000201043000844
:1010C000B000002044030020FEE7000080B500AF20
:1010D0000E4B1B680D4A43F4007313600B4B1B68E7
:1010E0000A4A43F480631360084B1B68074A43F4C1
:1010F00080731360032000F04FF9002000F008F81F
:10110000FFF72AFE0023184680BD00BF003C0240C6
:1011100080B582B000AF7860124B1A68124B1B7812
:1011200019464FF47A73B3FBF1F3B2FBF3F31846AD
:1011300000F067F90346002B01D001230EE07B6825
:101140000F2B0AD8002279684FF0FF3000F02FF9FA
:10115000064A7B681360002300E001231846083725
:10116000BD4680BD540000205C00002058000020D7
:1011700080B400AF064B1B781A46064B1B6813441D
:10118000044A136000BFBD465DF8047B704700BF92
:101190005C000020F801002080B400AF034B1B6806
:1011A0001846BD465DF8047B704700BFF80100207B
:1011B00080B584B000AF7860FFF7EEFFB8607B6861
:1011C000FB60FB68B3F1FF3F05D00A4B1B781A4662
:1011D000FB681344FB6000BFFFF7DEFF0246BB68FD
:1011E000D31AFA689A42F7D800BF00BF1037BD463D
:1011F00080BD00BF5C00002080B485B000AF786087
:101200007B6803F00703FB600C4BDB68BB60BA68CC
:101210004FF6FF031340BB60FB681A02BB68134321
:1012200043F0BF6343F40033BB60044ABB68D36040
:1012300000BF1437BD465DF8047B704700ED00E049
:1012400080B400AF044BDB681B0A03F007031846A9
:10125000BD465DF8047B704700ED00E080B483B0CC
:1012600000AF0346FB7197F90730002B0BDBFB79CE
:1012700003F01F02074997F907305B09012000FAC4
:1012800002F241F8232000BF0C37BD465DF8047B15
:10129000704700BF00E100E080B483B000AF0346B8
:1012A0003960FB7197F90730002B0ADB3B68DAB233
:1012B0000C4997F907301201D2B20B4483F800238E
:1012C0000AE03B68DAB20849FB7903F00F03043BFC
:1012D0001201D2B20B441A7600BF0C37BD465DF83E
:1012E000047B704700E100E000ED00E080B489B0CD
:1012F00000AFF860B9607A60FB6803F00703FB6138
:10130000FB69C3F10703042B28BF0423BB61FB69FE
:101310000433062B02D9FB69033B00E000237B6109
:101320004FF0FF32BB6902FA03F3DA43BB681A409D
:101330007B699A404FF0FF317B6901FA03F3D9438F
:101340007B680B40134318462437BD465DF8047B89
:101350007047000080B582B000AF78607B68013BC9
:10136000B3F1807F01D301230FE00A4A7B68013B80
:1013700053600F214FF0FF30FFF78EFF054B002227
:101380009A60044B07221A60002318460837BD46AE
:1013900080BD00BF10E000E080B582B000AF786093
:1013A0007868FFF729FF00BF0837BD4680BD80B5CC
:1013B00086B000AF0346B9607A60FB7300237B619F
:1013C000FFF73EFF78617A68B9687869FFF78EFFAA
:1013D000024697F90F3011461846FFF75DFF00BF30
:1013E0001837BD4680BD80B582B000AF0346FB71A3
:1013F00097F907301846FFF731FF00BF0837BD46A1
:1014000080BD80B582B000AF78607868FFF7A2FF3A
:10141000034618460837BD4680BD80B483B000AF90
:1014200078607B6893F83530DBB2022B04D07B68A0
:1014300080225A6501230CE07B68052283F8352061
:101440007B681B681A687B681B6822F001021A60BF
:10145000002318460C37BD465DF8047B704700003A
:1014600080B489B000AF7860396000237B610023CD
:101470003B610023BB610023FB6159E10122FB6951
:1014800002FA03F37B613B681B687A6913403B6196
:101490003A697B699A4240F048813B685B6803F097
:1014A0000303012B05D03B685B6803F00303022BA9
:1014B00030D17B689B68BB61FB695B00032202FA49
:1014C00003F3DB43BA691340BB613B68DA68FB692D
:1014D0005B0002FA03F3BA691343BB617B68BA6924
:1014E0009A607B685B68BB610122FB6902FA03F3C7
:1014F000DB43BA691340BB613B685B681B0903F0BF
:101500000102FB6902FA03F3BA691343BB617B680A
:10151000BA695A603B685B6803F00303032B17D07A
:101520007B68DB68BB61FB695B00032202FA03F3A3
:10153000DB43BA691340BB613B689A68FB695B0097
:1015400002FA03F3BA691343BB617B68BA69DA60D4
:101550003B685B6803F00303022B23D1FB69DA08C5
:101560007B68083253F82230BB61FB6903F0070344
:101570009B000F2202FA03F3DB43BA691340BB61FD
:101580003B681A69FB6903F007039B0002FA03F347
:10159000BA691343BB61FB69DA087B680832B96931
:1015A00043F822107B681B68BB61FB695B00032268
:1015B00002FA03F3DB43BA691340BB613B685B6823
:1015C00003F00302FB695B0002FA03F3BA691343F9
:1015D000BB617B68BA691A603B685B6803F440339F
:1015E000002B00F0A2800023FB60574B5B6C564A37
:1015F00043F480435364544B5B6C03F48043FB60BF
:10160000FB68524AFB699B08023352F82330BB61E6
:10161000FB6903F003039B000F2202FA03F3DB4391
:10162000BA691340BB617B68494A934219D07B6811
:10163000484A934213D07B68474A93420DD07B6857
:10164000464A934207D07B68454A934201D104231E
:1016500008E0072306E0032304E0022302E001235D
:1016600000E00023FA6902F0030292009340BA6995
:101670001343BB613549FB699B080233BA6941F8E2
:101680002320384B9B68BB613B69DB43BA6913403D
:10169000BB613B685B6803F48013002B03D0BA691D
:1016A0003B691343BB612F4ABB6993602D4BDB68D9
:1016B000BB613B69DB43BA691340BB613B685B6854
:1016C00003F40013002B03D0BA693B691343BB61D9
:1016D000244ABB69D360234B5B68BB613B69DB4336
:1016E000BA691340BB613B685B6803F40033002BAD
:1016F00003D0BA693B691343BB611A4ABB695360A3
:10170000184B1B68BB613B69DB43BA691340BB6183
:101710003B685B6803F48033002B03D0BA693B69F4
:101720001343BB610F4ABB691360FB690133FB6163
:10173000FB690F2B7FF6A2AE00BF00BF2437BD466A
:101740005DF8047B704700BF00380240003801405C
:10175000000002400004024000080240000C024069
:1017600000100240003C014080B485B000AF7860BA
:101770000B467B807B681A697B881340002B02D064
:101780000123FB7301E00023FB73FB7B1846143736
:10179000BD465DF8047B704780B483B000AF7860CD
:1017A0000B467B8013467B707B78002B03D07A88B6
:1017B0007B689A6103E07B881A047B689A6100BFAA
:1017C0000C37BD465DF8047B7047000080B586B0DD
:1017D00000AF78607B68002B01D1012367E27B6852
:1017E0001B6803F00103002B75D0884B9B6803F046
:1017F0000C03042B0CD0854B9B6803F00C03082BC7
:1018000012D1824B5B6803F48003B3F5800F0BD1D8
:101810007E4B1B6803F40033002B5BD07B685B6856
:10182000002B57D1012342E27B685B68B3F5803F10
:1018300006D1764B1B68754A43F4803313601DE074
:101840007B685B68B3F5A02F0CD1704B1B686F4AA7
:1018500043F4802313606D4B1B686C4A43F4803360
:1018600013600BE0694B1B68684A23F480331360F4
:10187000664B1B68654A23F4802313607B685B68B2
:10188000002B13D0FFF788FC386108E0FFF784FCD9
:1018900002463B69D31A642B01D9032307E25B4B51
:1018A0001B6803F40033002BF0D014E0FFF774FC46
:1018B000386108E0FFF770FC02463B69D31A642BDD
:1018C00001D90323F3E1514B1B6803F40033002BD0
:1018D000F0D100E000BF7B681B6803F00203002B1F
:1018E00063D04A4B9B6803F00C03002B0BD0474B93
:1018F0009B6803F00C03082B1CD1444B5B6803F47A
:101900008003002B16D1414B1B6803F00203002B10
:1019100005D07B68DB68012B01D00123C7E13B4B7D
:101920001B6823F0F8027B681B69DB00374913430F
:101930000B603AE07B68DB68002B20D0344B01223F
:101940001A60FFF729FC386108E0FFF725FC024622
:101950003B69D31A022B01D90323A8E12B4B1B6847
:1019600003F00203002BF0D0284B1B6823F0F80291
:101970007B681B69DB00254913430B6015E0244B92
:1019800000221A60FFF708FC386108E0FFF704FC4A
:1019900002463B69D31A022B01D9032387E11B4B73
:1019A0001B6803F00203002BF0D17B681B6803F077
:1019B0000803002B36D07B685B69002B16D0154BD3
:1019C00001221A60FFF7E8FB386108E0FFF7E4FB4B
:1019D00002463B69D31A022B01D9032367E10B4B63
:1019E0005B6F03F00203002BF0D01BE0094B0022D9
:1019F0001A60FFF7D1FB38610EE0FFF7CDFB02461E
:101A00003B69D31A022B07D9032350E10038024067
:101A100000004742800E4742884B5B6F03F0020391
:101A2000002BEAD17B681B6803F00403002B00F055
:101A300097800023FB75814B1B6C03F08053002BB8
:101A40000FD10023BB607D4B1B6C7C4A43F080535D
:101A500013647A4B1B6C03F08053BB60BB6801239B
:101A6000FB75774B1B6803F48073002B18D1744B04
:101A70001B68734A43F480731360FFF78DFB386172
:101A800008E0FFF789FB02463B69D31A022B01D914
:101A900003230CE16A4B1B6803F48073002BF0D026
:101AA0007B689B68012B06D1644B1B6F634A43F034
:101AB000010313671CE07B689B68052B0CD15F4B0F
:101AC0001B6F5E4A43F0040313675C4B1B6F5B4A5A
:101AD00043F0010313670BE0584B1B6F574A23F089
:101AE00001031367554B1B6F544A23F0040313671C
:101AF0007B689B68002B15D0FFF74EFB38610AE02E
:101B0000FFF74AFB02463B69D31A41F288329342FF
:101B100001D90323CBE0494B1B6F03F00203002BD9
:101B2000EED014E0FFF738FB38610AE0FFF734FB32
:101B300002463B69D31A41F28832934201D903230A
:101B4000B5E03E4B1B6F03F00203002BEED1FB7D93
:101B5000012B05D1394B1B6C384A23F08053136499
:101B60007B689B69002B00F0A180344B9B6803F0DD
:101B70000C03082B5CD07B689B69022B41D1314B55
:101B800000221A60FFF708FB386108E0FFF704FB4A
:101B900002463B69D31A022B01D9032387E0274B66
:101BA0001B6803F00073002BF0D17B68DA697B6857
:101BB0001B6A1A437B685B6A9B011A437B689B6ABA
:101BC0005B08013B1B041A437B68DB6A1B061B494D
:101BD00013434B601B4B01221A60FFF7DDFA38619B
:101BE00008E0FFF7D9FA02463B69D31A022B01D964
:101BF00003235CE0114B1B6803F00073002BF0D053
:101C000054E0104B00221A60FFF7C6FA386108E072
:101C1000FFF7C2FA02463B69D31A022B01D903230C
:101C200045E0064B1B6803F00073002BF0D13DE04C
:101C30007B689B69012B07D1012338E00038024003
:101C400000700040600047421B4B5B68FB607B6894
:101C50009B69012B28D0FB6803F480027B68DB6959
:101C60009A4221D1FB6803F03F027B681B6A9A42CB
:101C70001AD1FA6847F6C07313407A68526A920123
:101C8000934211D1FB6803F440327B689B6A5B0886
:101C9000013B1B049A4207D1FB6803F070627B682A
:101CA000DB6A1B069A4201D0012300E0002318469C
:101CB0001837BD4680BD00BF0038024080B584B0F3
:101CC00000AF786039607B68002B01D10123CCE044
:101CD000684B1B6803F007033A689A420CD9654BBE
:101CE0003A68D2B21A70634B1B6803F007033A6874
:101CF0009A4201D00123B8E07B681B6803F002031D
:101D0000002B20D07B681B6803F00403002B05D058
:101D1000594B9B68584A43F4E05393607B681B68B7
:101D200003F00803002B05D0534B9B68524A43F441
:101D300060439360504B9B6823F0F0027B689B6884
:101D40004D4913438B607B681B6803F00103002B34
:101D500044D07B685B68012B07D1474B1B6803F4B9
:101D60000033002B19D101237FE07B685B68022BD5
:101D700003D07B685B68032B07D13F4B1B6803F0E4
:101D80000073002B09D101236FE03B4B1B6803F06C
:101D90000203002B01D1012367E0374B9B6823F03E
:101DA00003027B685B68344913438B60FFF7F4F9E7
:101DB000F8600AE0FFF7F0F90246FB68D31A41F237
:101DC0008832934201D903234FE02B4B9B6803F0E9
:101DD0000C027B685B689B009A42EBD1254B1B6829
:101DE00003F007033A689A420CD2224B3A68D2B207
:101DF0001A70204B1B6803F007033A689A4201D01F
:101E0000012332E07B681B6803F00403002B08D039
:101E1000194B9B6823F4E0527B68DB681649134337
:101E20008B607B681B6803F00803002B09D0124B02
:101E30009B6823F460427B681B69DB000E491343F7
:101E40008B6000F021F802460B4B9B681B0903F0E6
:101E50000F030A49CB5C22FA03F3094A1360094BCA
:101E60001B681846FFF754F9002318461037BD4683
:101E700080BD00BF003C024000380240B442000870
:101E800054000020580000202DE9B04F94B000AF5E
:101E900000237B640023FB6400233B640023BB64BA
:101EA000794B9B6803F00C03082B0DD0082B00F234
:101EB000E180002B02D0042B03D0DBE0734BBB642A
:101EC000DBE0734BBB64D8E06F4B5B6803F03F0310
:101ED0007B646D4B5B6803F48003002B63D06A4B1B
:101EE0005B689B090022BB63FA63BB6BC3F3080307
:101EF0003B6300237B63D7E90C4522462B464FF01A
:101F000000004FF00001590141EAD2615001024640
:101F10000B462146511A3961294663EB01037B6167
:101F20004FF000024FF00003D7E904AB59468B0194
:101F3000514643EA916351468A015146B2EB01088A
:101F4000594663EB01094FF000024FF000034FEADE
:101F5000C90343EA58734FEAC8029046994623469C
:101F600018EB0303BB602B4649EB0303FB604FF008
:101F700000024FF00003D7E9024529464B022146F3
:101F800043EAD15321464A02104619467B6C00228F
:101F9000BB62FA62D7E90A23FEF77AF902460B46DA
:101FA0001346FB6458E0384B5B689B0900221846D7
:101FB0001146C0F308033B6200237B62D7E908891E
:101FC00042464B464FF000004FF00001590141EAF4
:101FD000D261500102460B464146B2EB010A494626
:101FE00063EB010B4FF000024FF000034FEA8B133D
:101FF00043EA9A634FEA8A12B2EB0A0463EB0B05D9
:102000004FF000024FF00003EB0043EA5473E2008C
:1020100014461D464346E3183B604B4645EB03031D
:102020007B604FF000024FF00003D7E900452946DE
:102030008B02214643EA915321468A0210461946F3
:102040007B6C0022BB61FA61D7E90623FEF720F919
:1020500002460B461346FB640B4B5B681B0C03F0FC
:10206000030301335B003B64FA6C3B6CB2FBF3F39C
:10207000BB6402E0054BBB6400BFBB6C1846503725
:10208000BD46BDE8B08F00BF003802400024F40018
:1020900000127A0080B400AF034B1B681846BD469F
:1020A0005DF8047B704700BF5400002080B500AF8E
:1020B000FFF7F0FF0246054B9B689B0A03F00703FE
:1020C0000349CB5C22FA03F3184680BD0038024076
:1020D000C442000880B500AFFFF7DCFF0246054BA5
:1020E0009B685B0B03F007030349CB5C22FA03F305
:1020F000184680BD00380240C442000880B582B056
:1021000000AF78607B68002B01D101237BE07B6806
:102110005B6A002B08D17B685B68B3F5827F09D0CE
:102120007B680022DA6105E07B6800221A617B6827
:1021300000225A617B6800229A627B6893F85130D2
:10214000DBB2002B06D17B68002283F85020786830
:10215000FEF72AFE7B68022283F851207B681B6809
:102160001A687B681B6822F040021A607B685B6813
:1021700003F482727B689B6803F404431A437B6810
:10218000DB6803F400631A437B681B6903F00203F6
:102190001A437B685B6903F001031A437B689B6900
:1021A00003F400731A437B68DB6903F038031A43B6
:1021B0007B681B6A03F0800342EA03017B689B6A29
:1021C00003F400527B681B680A431A607B689B69B2
:1021D0001B0C03F004017B685B6A03F010027B6850
:1021E0001B680A435A607B681B68DA697B681B6856
:1021F00022F40062DA617B6800225A657B68012262
:1022000083F85120002318460837BD4680BD80B5AD
:1022100088B000AFF860B9603B601346FB80FEF702
:10222000BBFFF861FB887B83FB6893F85130DBB21E
:10223000012B01D002232AE1BB68002B02D0FB88CE
:10224000002B01D1012322E1FB6893F85030012BD0
:1022500001D102231BE1FB68012283F85020FB68B7
:10226000032283F85120FB6800225A65FB68BA6894
:102270001A63FB68FA889A86FB68FA88DA86FB6834
:1022800000229A63FB6800229A87FB680022DA87A3
:10229000FB6800225A64FB6800221A64FB689B6892
:1022A000B3F5004F0FD1FB681B681A68FB681B6809
:1022B00022F040021A60FB681B681A68FB681B6802
:1022C00042F480421A60FB681B681B6803F04003FD
:1022D000402B07D0FB681B681A68FB681B6842F03C
:1022E00040021A60FB68DB68B3F5006F52D1FB68EF
:1022F0005B68002B02D07B8B012B45D1FB681B6BED
:102300001A88FB681B68DA60FB681B6B9A1CFB6809
:102310001A63FB68DB8E9BB2013B9AB2FB68DA86DC
:1023200032E0FB681B689B6803F00203022B12D1AA
:10233000FB681B6B1A88FB681B68DA60FB681B6B09
:102340009A1CFB681A63FB68DB8E9BB2013B9AB256
:10235000FB68DA8618E0FEF71FFF0246FB69D31A16
:102360003A689A4203D83B68B3F1FF3F02D13B6819
:10237000002B09D1FB68012283F85120FB68002261
:1023800083F85020032382E0FB68DB8E9BB2002B96
:10239000C7D153E0FB685B68002B02D07B8B012B1D
:1023A00047D1FB681A6BFB681B680C3312781A70F4
:1023B000FB681B6B5A1CFB681A63FB68DB8E9BB2C5
:1023C000013B9AB2FB68DA8633E0FB681B689B68C6
:1023D00003F00203022B13D1FB681A6BFB681B6826
:1023E0000C3312781A70FB681B6B5A1CFB681A635B
:1023F000FB68DB8E9BB2013B9AB2FB68DA8618E081
:10240000FEF7CAFE0246FB69D31A3A689A4203D81D
:102410003B68B3F1FF3F02D13B68002B09D1FB6859
:10242000012283F85120FB68002283F85020032307
:102430002DE0FB68DB8E9BB2002BC6D1FA693968B0
:10244000F86800F0C3FD0346002B02D0FB68202291
:102450005A65FB689B68002B0AD100237B61FB68EF
:102460001B68DB687B61FB681B689B687B617B6921
:10247000FB68012283F85120FB68002283F850207A
:10248000FB685B6D002B01D0012300E000231846A0
:102490002037BD4680BD80B588B002AFF860B96016
:1024A0003B601346FB80FB6893F85130DBB2012B95
:1024B00001D0022304E1FB685B68B3F5827F12D18F
:1024C000FB689B68002B0ED1FB68042283F8512027
:1024D000FA883B6800931346BA68B968F86800F058
:1024E000F3F80346ECE0FEF757FE7861BB68002B7B
:1024F00002D0FB88002B01D10123E1E0FB6893F8B7
:102500005030012B01D10223DAE0FB68012283F86D
:102510005020FB68042283F85120FB6800225A6592
:10252000FB68BA689A63FB68FA889A87FB68FA883E
:10253000DA87FB6800221A63FB6800229A86FB6830
:102540000022DA86FB6800221A64FB6800225A64C3
:10255000FB689B68B3F5004F0FD1FB681B681A68D6
:10256000FB681B6822F040021A60FB681B681A684F
:10257000FB681B6822F480421A60FB681B681B68BA
:1025800003F04003402B07D0FB681B681A68FB6808
:102590001B6842F040021A60FB68DB68002B70D1B8
:1025A00035E0FB681B689B6803F00103012B15D124
:1025B000FB681B6803F10C02FB689B6B1278D2B2BC
:1025C0001A70FB689B6B5A1CFB689A63FB68DB8F75
:1025D0009BB2013B9AB2FB68DA8718E0FEF7DCFD9C
:1025E00002467B69D31A3A689A4203D83B68B3F132
:1025F000FF3F02D13B68002B09D1FB68012283F821
:102600005120FB68002283F85020032358E0FB6828
:10261000DB8F9BB2002BC4D138E0FB681B689B6842
:1026200003F00103012B13D1FB681B68DA68FB6818
:102630009B6B92B21A80FB689B6B9A1CFB689A6337
:10264000FB68DB8F9BB2013B9AB2FB68DA8718E02C
:10265000FEF7A2FD02467B69D31A3A689A4203D874
:102660003B68B3F1FF3F02D13B68002B09D1FB6807
:10267000012283F85120FB68002283F850200323B5
:102680001EE0FB68DB8F9BB2002BC6D17A693968EC
:10269000F86800F035FC0346002B02D0FB682022CE
:1026A0005A65FB68012283F85120FB68002283F8F9
:1026B0005020FB685B6D002B01D0012300E000235C
:1026C00018461837BD4680BD80B58AB000AFF860A7
:1026D000B9607A607B8001237B62FEF75DFD386222
:1026E000FB6893F85130FB77FB685B68BB617B88C4
:1026F000FB82FB7F012B0CD0BB69B3F5827F06D137
:10270000FB689B68002B02D1FB7F042B01D00223C6
:102710007FE1BB68002B05D07B68002B02D07B8853
:10272000002B01D1012374E1FB6893F85030012B99
:1027300001D102236DE1FB68012283F85020FB6880
:1027400093F85130DBB2042B03D0FB68052283F8E9
:102750005120FB6800225A65FB687A689A63FB681F
:102760007A88DA87FB687A889A87FB68BA681A637E
:10277000FB687A88DA86FB687A889A86FB6800228A
:102780001A64FB6800225A64FB681B681B6803F02C
:102790004003402B07D0FB681B681A68FB681B6866
:1027A00042F040021A60FB68DB68B3F5006F7ED12F
:1027B000FB685B68002B02D0FB8A012B6CD1FB68A5
:1027C0001B6B1A88FB681B68DA60FB681B6B9A1C22
:1027D000FB681A63FB68DB8E9BB2013B9AB2FB6815
:1027E000DA8659E0FB681B689B6803F00203022B42
:1027F0001BD1FB68DB8E9BB2002B16D07B6A012BB2
:1028000013D1FB681B6B1A88FB681B68DA60FB68D6
:102810001B6B9A1CFB681A63FB68DB8E9BB2013B47
:102820009AB2FB68DA8600237B62FB681B689B68B0
:1028300003F00103012B19D1FB68DB8F9BB2002B46
:1028400014D0FB681B68DA68FB689B6B92B21A8035
:10285000FB689B6B9A1CFB689A63FB68DB8F9BB2DF
:10286000013B9AB2FB68DA8701237B62FEF794FC96
:1028700002463B6AD31A3A6B9A420DD83B6BB3F1CE
:10288000FF3F09D0FB68012283F85120FB6800223A
:1028900083F850200323BCE0FB68DB8E9BB2002B47
:1028A000A0D1FB68DB8F9BB2002B9BD182E0FB6841
:1028B0005B68002B02D0FB8A012B71D1FB681A6B7D
:1028C000FB681B680C3312781A70FB681B6B5A1C70
:1028D000FB681A63FB68DB8E9BB2013B9AB2FB6814
:1028E000DA865DE0FB681B689B6803F00203022B3D
:1028F0001CD1FB68DB8E9BB2002B17D07B6A012BAF
:1029000014D1FB681A6BFB681B680C3312781A70C1
:10291000FB681B6B5A1CFB681A63FB68DB8E9BB25F
:10292000013B9AB2FB68DA8600237B62FB681B6876
:102930009B6803F00103012B19D1FB68DB8F9BB26D
:10294000002B14D0FB681B68DA68FB689B6BD2B263
:102950001A70FB689B6B5A1CFB689A63FB68DB8FE1
:102960009BB2013B9AB2FB68DA8701237B62FEF7D8
:1029700013FC02463B6AD31A3A6B9A4203D83B6B6C
:10298000B3F1FF3F02D13B6B002B09D1FB68012261
:1029900083F85120FB68002283F85020032338E09D
:1029A000FB68DB8E9BB2002B9CD1FB68DB8F9BB25C
:1029B000002B97D13A6A396BF86800F007FB0346A1
:1029C000002B08D0FB6820225A65FB68002283F8A0
:1029D000502001231DE0FB689B68002B0AD10023D7
:1029E0003B61FB681B68DB683B61FB681B689B689D
:1029F0003B613B69FB68012283F85120FB680022A0
:102A000083F85020FB685B6D002B01D0012300E0B0
:102A1000002318462837BD4680BD000080B485B02D
:102A200000AFF860B9601346FB80BB68002B02D092
:102A3000FB88002B01D101236AE0FB6893F8513039
:102A4000DBB2012B01D0022362E0FB6893F8503027
:102A5000012B01D102235BE0FB68012283F85020A7
:102A6000FB68032283F85120FB6800225A65FB684B
:102A7000BA681A63FB68FA889A86FB68FA88DA866D
:102A8000FB6800229A63FB6800229A87FB68002299
:102A9000DA87FB6800221A64FB68DB68002B03D02E
:102AA000FB681E4A5A6402E0FB681D4A5A64FB68D0
:102AB0009B68B3F5004F0FD1FB681B681A68FB6871
:102AC0001B6822F040021A60FB681B681A68FB68EA
:102AD0001B6842F480421A60FB681B681B6803F0A5
:102AE0004003402B07D0FB681B681A68FB681B6813
:102AF00042F040021A60FB68002283F85020FB6815
:102B00001B685A68FB681B6842F0A0025A600023E9
:102B100018461437BD465DF8047B7047AB2D00089E
:102B2000652D000880B588B000AF78607B681B68B1
:102B30005B68FB617B681B689B68BB61BB6903F0DA
:102B40004003002B0ED1BB6903F00103002B09D019
:102B5000FB6903F04003002B04D07B681B6C786892
:102B60009847CEE0BB6903F00203002B09D0FB6954
:102B700003F08003002B04D07B685B6C7868984777
:102B8000BFE0BB6903F02003002B0AD1BB6903F04F
:102B90004003002B05D1BB6903F48073002B00F0C8
:102BA000B080FB6903F02003002B00F0AA80BB6912
:102BB00003F04003002B23D07B6893F85130DBB245
:102BC000032B11D07B685B6D43F004027B685A6570
:102BD00000237B617B681B68DB687B617B681B680B
:102BE0009B687B617B690BE000233B617B681B6812
:102BF000DB683B617B681B689B683B613B6980E0ED
:102C0000BB6903F02003002B14D07B685B6D43F09D
:102C100001027B685A650023FB607B681B689B6828
:102C2000FB607B681B681A687B681B6822F04002A7
:102C30001A60FB68BB6903F48073002B0CD07B68BF
:102C40005B6D43F008027B685A650023BB607B68BC
:102C50001B689B68BB60BB687B685B6D002B4FD0BB
:102C60007B681B685A687B681B6822F0E0025A6028
:102C70007B68012283F85120FB6903F00203002BDB
:102C800004D1FB6903F00103002B34D07B681B687F
:102C90005A687B681B6822F003025A607B68DB6C11
:102CA000002B11D07B68DB6C174A1A657B68DB6CE4
:102CB0001846FEF7B2FB0346002B05D07B685B6D20
:102CC00043F040027B685A657B689B6C002B16D0F2
:102CD0007B689B6C0C4A1A657B689B6C1846FEF7F8
:102CE0009CFB0346002B0AD07B685B6D43F04002DF
:102CF0007B685A6503E0786800F008F800E000BFE0
:102D000000BF2037BD4680BD3D2D000880B483B094
:102D100000AF786000BF0C37BD465DF8047B70479C
:102D200080B483B000AF78607B6893F85130DBB239
:102D300018460C37BD465DF8047B704780B584B0FB
:102D400000AF78607B689B6BFB60FB680022DA87D2
:102D5000FB680022DA86F868FFF7D8FF00BF10375B
:102D6000BD4680BD80B582B000AF78607B681A6BCD
:102D70007B681B680C3312781A707B681B6B5A1CBB
:102D80007B681A637B68DB8E9BB2013B9AB27B68DF
:102D9000DA867B68DB8E9BB2002B02D1786800F06C
:102DA00069F900BF0837BD4680BD80B582B000AF6D
:102DB00078607B681B6B1A887B681B68DA607B68AD
:102DC0001B6B9A1C7B681A637B68DB8E9BB2013B92
:102DD0009AB27B68DA867B68DB8E9BB2002B02D1CD
:102DE000786800F047F900BF0837BD4680BD000095
:102DF00080B588B000AFF860B9603B601346FB71E6
:102E0000FEF7CAF90246BB6A9B1A3A681344FB6193
:102E1000FEF7C2F9B861394B1B685B011B0DFA69FB
:102E200002FB03F37B6154E03B68B3F1FF3F50D0FA
:102E3000FEF7B2F90246BB69D31AFA699A4202D97F
:102E4000FB69002B3DD1FB681B685A68FB681B6857
:102E500022F0E0025A60FB685B68B3F5827F11D113
:102E6000FB689B68B3F5004F04D0FB689B68B3F523
:102E7000806F07D1FB681B681A68FB681B6822F02B
:102E800040021A60FB689B6AB3F5005F0FD1FB68D4
:102E90001B681A68FB681B6822F400521A60FB6802
:102EA0001B681A68FB681B6842F400521A60FB68D2
:102EB000012283F85120FB68002283F8502003236D
:102EC00017E07B69002B01D10023FB617B69013B8B
:102ED0007B61FB681B689A68BB681340BA689A42BA
:102EE0000CBF01230023DBB21A46FB799A429BD127
:102EF000002318462037BD4680BD00BF5400002087
:102F000080B586B002AFF860B9607A60FB685B6834
:102F1000B3F5827F11D1FB689B68B3F5004F04D0F5
:102F2000FB689B68B3F5806F07D1FB681B681A6864
:102F3000FB681B6822F040021A60FB685B68B3F50F
:102F4000827F2AD1FB689B68B3F5806F12D07B68C3
:102F50000093BB6800228021F868FFF749FF034611
:102F6000002B2DD0FB685B6D43F02002FB685A6597
:102F7000032326E07B680093BB6800220121F868E8
:102F8000FFF736FF0346002B1AD0FB685B6D43F05A
:102F90002002FB685A65032313E07B680093BB683B
:102FA00000220121F868FFF723FF0346002B07D01A
:102FB000FB685B6D43F02002FB685A65032300E069
:102FC000002318461037BD4680BD000080B588B08C
:102FD00002AFF860B9607A607B680093BB68012239
:102FE0000221F868FFF704FF0346002B07D0FB68B7
:102FF0005B6D43F02002FB685A65032332E01B4BF4
:103000001B681B4AA2FB03235B0D4FF47A7202FB81
:1030100003F37B61FB685B68B3F5827F12D17B6849
:103020000093BB6800228021F868FFF7E1FE0346A9
:10303000002B16D0FB685B6D43F02002FB685A65DD
:1030400003230FE07B69002B0AD07B69013B7B6186
:10305000FB681B689B6803F08003802BF2D000E0C4
:1030600000BF002318461837BD4680BD540000201D
:10307000819F5E1680B586B000AF78602C4B1B68D0
:103080002C4AA2FB03235B0A642202FB03F33B618D
:10309000FEF782F878613B69002B06D17B685B6D97
:1030A00043F020027B685A6509E03B69013B3B61C4
:1030B0007B681B689B6803F00203002BEBD07B68E6
:1030C0001B685A687B681B6822F0A0025A607A6904
:1030D00064217868FFF77AFF0346002B05D07B68F0
:1030E0005B6D43F020027B685A657B689B68002B10
:1030F0000AD10023FB607B681B68DB68FB607B6890
:103100001B689B68FB60FB687B68012283F8512089
:103110007B685B6D002B03D07868FFF7F7FD02E05A
:103120007868FDF701FC00BF1837BD4680BD00BFC1
:1031300054000020F119760580B582B000AF7860A8
:103140007B68002B01D1012342E07B6893F841307A
:10315000DBB2002B06D17B68002283F84020786820
:10316000FDF7C0FE7B68242283F841207B681B6842
:10317000DA687B681B6822F40052DA60786800F035
:1031800073F97B681B681A697B681B6822F490429C
:103190001A617B681B685A697B681B6822F02A02E7
:1031A0005A617B681B68DA687B681B6842F40052CE
:1031B000DA607B6800225A647B68202283F8412011
:1031C0007B68202283F842207B6800225A63002318
:1031D00018460837BD4680BD80B58AB002AFF8609A
:1031E000B9603B601346FB8000237B61FB6893F86A
:1031F0004130DBB2202B75D1BB68002B02D0FB889D
:10320000002B01D101236EE0FB6800225A64FB68A9
:10321000212283F84120FDF7BFFF7861FB68FA881F
:103220009A84FB68FA88DA84FB689B68B3F5805F50
:1032300008D1FB681B69002B04D10023FB61BB682C
:10324000BB6103E0BB68FB610023BB612EE03B6810
:1032500000937B6900228021F86800F048F803465B
:10326000002B05D0FB68202283F8412003233AE09D
:10327000FB69002B0BD1BB691B881A46FB681B68D6
:10328000C2F308025A60BB690233BB6107E0FB6905
:103290001A78FB681B685A60FB690133FB61FB68A5
:1032A000DB8C9BB2013B9AB2FB68DA84FB68DB8C57
:1032B0009BB2002BCBD13B6800937B69002240215D
:1032C000F86800F014F80346002B05D0FB682022B4
:1032D00083F84120032306E0FB68202283F8412085
:1032E000002300E0022318462037BD4680BD80B58C
:1032F00086B000AFF860B9603B601346FB713BE0FD
:103300003B6AB3F1FF3F37D0FDF746FF02463B680B
:10331000D31A3A6A9A4202D33B6A002B01D10323A3
:103320003AE0FB681B68DB6803F00403002B23D042
:10333000BB68802B20D0BB68402B1DD0FB681B686E
:103340001B6803F00803082B16D100237B61FB6880
:103350001B681B687B61FB681B685B687B617B6922
:10336000F86800F01DF8FB6808225A64FB68002228
:1033700083F8402001230FE0FB681B681A68BB68D4
:103380001340BA689A420CBF01230023DBB21A46ED
:10339000FB799A42B4D0002318461837BD4680BD49
:1033A00080B495B000AF78607B681B680C337B639A
:1033B0007B6B53E8003F3B633B6B23F49073FB64F0
:1033C0007B681B680C33FA6C3A64FB63F96B3A6CEC
:1033D00041E80023BB63BB6B002BE5D17B681B6816
:1033E00014333B623B6A53E8003FFB61FB6923F007
:1033F0000103BB647B681B681433BA6CFA62BB625E
:10340000B96AFA6A41E800237B627B6A002BE5D146
:103410007B681B6B012B19D17B681B680C33FB602D
:10342000FB6853E8003FBB60BB6823F010037B647C
:103430007B681B680C337A6CBA617B617969BA6905
:1034400041E800233B613B69002BE5D17B682022EA
:1034500083F842207B6800221A6300BF5437BD46C0
:103460005DF8047B704700002DE9B04FC0B000AF9D
:10347000C7F8F400D7F8F4301B681B6923F44050F8
:10348000D7F8F430D968D7F8F4301A6840EA010365
:103490001361D7F8F4309A68D7F8F4301B691A43EF
:1034A000D7F8F4305B691A43D7F8F430DB6913437B
:1034B000C7F8F830D7F8F4301B68DB6823F41641FE
:1034C00021F00C01D7F8F4301A68D7F8F8300B4324
:1034D000D360D7F8F4301B685B6923F44070D7F8E9
:1034E000F4309969D7F8F4301A6840EA010353615F
:1034F000D7F8F4301A688F4B9A4205D0D7F8F430D9
:103500001A688D4B9A4204D1FEF7E4FDC7F8FC001F
:1035100003E0FEF7CBFDC7F8FC00D7F8F430DB6919
:10352000B3F5004F40F00C81D7F8FC300022C7F80B
:10353000E830C7F8EC20D7E93A4522462B469118E7
:10354000B9655B41FB65D7E91623214612EB0108FB
:10355000294643EB01094FF000024FF000034FEA08
:10356000C90343EA58734FEAC80290469946234676
:1035700018EB0303C7F8E0302B4649EB0303C7F809
:10358000E430D7F8F4305B680022C7F8D830C7F8C9
:10359000DC20D7E936120B46DB183B65134642EBBD
:1035A00003037B65D7E91423D7E93801FCF770FEE4
:1035B00002460B46614BA3FB02235B091C01D7F8B3
:1035C000FC300022C7F8D030C7F8D420D7E93489BE
:1035D00042464B469118B9645B41FB64D7E912231C
:1035E000414612EB010A494643EB010B4FF0000242
:1035F0004FF000034FEACB0343EA5A734FEACA0283
:1036000092469B4643461AEB0303C7F8C8304B4625
:103610004BEB0303C7F8CC30D7F8F4305B680022DB
:10362000C7F8C030C7F8C420D7E930120B46DB1802
:103630003B64134642EB03037B64D7E91023D7E9CD
:103640003201FCF725FE02460B4611463B4BA3FB1D
:1036500001235B09642202FB03F3CB1ADB0003F1B5
:103660003202364BA3FB02235B095B0003F4F873C1
:103670001C44D7F8FC300022C7F8B830C7F8BC208B
:10368000D7E92E8942464B469118B9635B41FB63EB
:10369000D7E90E2341465118396349464B417B63B4
:1036A0004FF000024FF00003D7E90CAB5946CB00B6
:1036B000514643EA51735146CA0010461946034623
:1036C00042469B18C7F8B0304B460A4642EB03030C
:1036D000C7F8B430D7F8F4305B680022C7F8A830D8
:1036E000C7F8AC20D7E92A120B46DB18BB62134699
:1036F00042EB0303FB62D7E90A23D7E92C01FCF76D
:10370000C7FD02460B460D4BA3FB02135B09642168
:1037100001FB03F3D31ADB003233084AA2FB032375
:103720005B0903F00702D7F8F4301B6822449A6063
:1037300006E100BF00100140001401401F85EB515D
:10374000D7F8FC300022C7F8A030C7F8A420D7E98A
:10375000288942464B46911839625B417B62D7E922
:10376000082341465418494643EB01054FF0000237
:103770004FF00003EB0043EA5473E20014461D4689
:103780004346E318C7F898304B4645EB0303C7F8A8
:103790009C30D7F8F4305B680022C7F89030C7F847
:1037A00094204FF000024FF00003D7E9244529464A
:1037B0008B00214643EA917321468A00D7E926010E
:1037C000FCF766FD02460B46604BA3FB02235B0938
:1037D0001C01D7F8FC300022C7F88830C7F88C20CD
:1037E000D7E9228942464B469118B9615B41FB619A
:1037F000D7E9062341465118396149464B417B615F
:103800004FF000024FF00003D7E904AB5946CB005C
:10381000514643EA51735146CA00104619460346C1
:1038200042469B18C7F880304B460A4642EB0303DA
:10383000C7F88430D7F8F4305B680022BB67FA67BA
:103840004FF000024FF00003D7E91E8949468B0074
:10385000414643EA917341468A00D7E92001FCF7CB
:1038600017FD02460B461146384BA3FB01235B09AB
:10387000642202FB03F3CB1A1B013233334AA2FB4F
:1038800003235B0903F0F0031C44D7F8FC3000224B
:103890003B677A67D7E91C8942464B469118B96065
:1038A0005B41FB60D7E90223414651183960494624
:1038B0004B417B604FF000024FF00003D7E900ABB3
:1038C0005946CB00514643EA51735146CA0010464F
:1038D0001946034642469B18BB664B460A4642EBD6
:1038E0000303FB66D7F8F4305B6800223B667A6618
:1038F0004FF000024FF00003D7E9188949468B00CA
:10390000414643EA917341468A00D7E91A01FCF720
:10391000BFFC02460B460D4BA3FB02135B0964215F
:1039200001FB03F3D31A1B013233084AA2FB032322
:103930005B0903F00F02D7F8F4301B6822449A6049
:1039400000BF07F58077BD46BDE8B08F1F85EB51FE
:103950000EB400B59CB01DAB029006906FF0004114
:10396000094807910491094953F8042B059100680F
:10397000019302A900F094F9029B00221A701CB076
:103980005DF804EB03B07047600000200802FFFF01
:1039900002440346934200D1704703F8011BF9E744
:1039A000014B1868704700BF6000002070B50D4DD6
:1039B0000D4C641BA4100026A64209D10B4D0C4CE3
:1039C00000F066FC641BA4100026A64205D170BD61
:1039D00055F8043B98470136EEE755F8043B984705
:1039E0000136F2E7084300080843000808430008CE
:1039F0000C4300087047704738B50546002941D090
:103A000051F8043C0C1F002BB8BFE41800F0E0F89C
:103A10001D4A136833B9636014602846BDE8384016
:103A200000F0DCB8A34208D9206821188B4201BFFE
:103A300019685B6809182160EDE71A465B680BB1ED
:103A4000A342FAD911685018A0420BD12068014452
:103A5000501883421160E0D118685B6853600844D5
:103A60001060DAE702D90C232B60D6E72068211812
:103A70008B4204BF19685B68636004BF091821604A
:103A80005460CAE738BD00BF4003002070B50F4E38
:103A90000C463168054611B900F0A6FB306021469E
:103AA000284600F0A1FB431C03D14FF0FF34204611
:103AB00070BDC41C24F00304A042F8D0211A28468B
:103AC00000F092FB0130F2D1EFE700BF3C03002091
:103AD0002DE9F843CD1C25F0030508350C2D38BF22
:103AE0000C25002D064601DBA94204D90C233360C6
:103AF0000020BDE8F883DFF8D48000F069F8D8F83A
:103B000000301C4644BB29463046FFF7BFFF431C2C
:103B1000044658D1D8F800402746002F43D1002C46
:103B20004BD023683946304604EB030900F05CFBB8
:103B3000814542D121686D1A29463046FFF7A6FF1C
:103B400001303AD023682B442360D8F800305A68FB
:103B500062BBC8F800700FE02268521B20D40B2A09
:103B600017D96119A342256018BF5960636808BF5F
:103B7000C8F8001062514B60304600F02FF804F195
:103B80000B00231D20F00700C21A1CBF1B1AA350F4
:103B9000AFE76268A3420CBFC8F800205A60EBE7A9
:103BA00023466468AEE73C467F68B6E71A465B6822
:103BB000A342FBD100235360DEE70C233360304681
:103BC00000F00CF894E70560D6E700BF4003002042
:103BD0000148FFF70FBF00BF380300200148FFF77F
:103BE0000ABF00BF380300202DE9F0478E681F464A
:103BF000BE420B6882460C4690462DD8B1F90C2087
:103C000012F4906F26D06569096905EB4505A3EBB1
:103C1000010905EBD5757B1C4B446D109D4238BFE7
:103C20001D46530527D52946FFF752FF064660B3C8
:103C300021694A4600F0E8FAA38923F4906343F02F
:103C40008003A381266165614E44A5EB09052660CA
:103C5000A5603E46BE4200D93E46206832464146F7
:103C600000F0A8FAA3689B1BA36023683344236079
:103C70000020BDE8F0872A4600F0D4FA0646002866
:103C8000E0D121695046FFF7B7FE0C23CAF8003097
:103C9000A38943F04003A3814FF0FF30E9E7000020
:103CA0002DE9F04F98468B891B069DB007460D46BF
:103CB000144610D50B6973B94021FFF709FF28603E
:103CC000286130B90C233B604FF0FF301DB0BDE8D8
:103CD000F08F40236B610023099320238DF8293056
:103CE000CDF80C803023DFF89C818DF82A304FF01E
:103CF000010923469A4613F8012B0AB1252AF9D166
:103D0000BAEB040B0BD05B46224629463846FFF738
:103D10006BFF013000F0A780099A5A4409929AF883
:103D20000030002B00F09F8000234FF0FF32CDE9E0
:103D300005230AF1010A049307938DF853301A936F
:103D40005446052214F8011B4E48FCF751FA049A18
:103D5000D8B9D00644BF20238DF85330110744BF93
:103D60002B238DF853309AF800302A2B15D0079A60
:103D7000544600204FF00A0C214611F8013B303B1D
:103D8000092B4BD9B0B1079214E0A0EB080309FA54
:103D900003F313430493A246D2E7039B191D1B6848
:103DA0000391002BBBBF5B4242F0020207930793D3
:103DB000B8BF049223782E2B0AD163782A2B32D1F4
:103DC000039B1A1D1B68039243EAE37302340593B5
:103DD000DFF8C0A0217803225046FCF709FA38B179
:103DE000049BA0EB0A004022824013430134049359
:103DF00014F8011B24488DF828100622FCF7F8F966
:103E0000002836D0214B1BBB039B073323F007034D
:103E100008330393099B334409936AE70CFB02328E
:103E20000C460120A8E700230134059319464FF002
:103E30000A0C204610F8012B303A092A03D9002B2E
:103E4000C6D00591C4E70CFB012104460123F0E72D
:103E500003AB00932A460E4B04A93846AFF300800B
:103E6000421C0646D6D1AB895B063FF52DAF0998BB
:103E70002CE703AB00932A46054B04A9384600F013
:103E800079F8EDE7CC420008D642000800000000B7
:103E9000E93B0008D24200082DE9F0471646984653
:103EA0008A680B69DDF820909342B8BF13463360EF
:103EB00091F8432007460C460AB10133336023686A
:103EC000990642BF336802333360256815F0060552
:103ED00006D104F1190AE36832689B1AAB4226DC6A
:103EE00094F843302268003B18BF012392062BD47C
:103EF00004F1430241463846C84701301ED02368CA
:103F0000226903F00603042B02BFE5683368ED1A4B
:103F1000A3680CBF25EAE57500259342C4BF9B1A30
:103F2000ED1800261A34B5421AD1002008E001230A
:103F3000524641463846C847013003D14FF0FF3062
:103F4000BDE8F0870135C6E7E1185A1C302081F83A
:103F50004300224494F8451082F843100233C7E727
:103F60000123224641463846C8470130E6D0013693
:103F7000D9E700002DE9FF470F7E0C9E782F914670
:103F800080460C469A4601F1430207D8622F0AD8B0
:103F9000002F00F0D280582F00F0B98004F14206C3
:103FA00084F842703AE0A7F16303152BF6D801A11B
:103FB00051F823F00D400008214000089D3F000803
:103FC0009D3F00089D3F00089D3F000821400008DC
:103FD0009D3F00089D3F00089D3F00089D3F000851
:103FE000214100084B400008DB4000089D3F0008CD
:103FF0009D3F0008434100089D3F00084B400008DA
:104000009D3F00089D3F0008E340000833681A1DEB
:104010001B68326004F1420684F8423001239DE0BF
:1040200033682068191D3160060601D51D6803E05C
:104030004506FBD5B3F90050002D03DA2D236D4260
:1040400084F8433059480A2311E021683368080690
:1040500053F8045B02D4490648BFADB26F2F5348F2
:10406000336014BF0A230823002184F843106668D4
:10407000A660002EA2BF216821F0040121600DB9C5
:10408000002E4BD01646B5FBF3F103FB1157C75D6D
:1040900006F8017D2F46BB420D46F4D9082B0BD103
:1040A0002368DF0708D5236961689942DEBF3023A2
:1040B00006F8013C06F1FF36921B2261CDF800A004
:1040C0004B4603AA21464046FFF7E6FE01304AD19F
:1040D0004FF0FF3004B0BDE8F087236843F02003C1
:1040E00023603348782784F84570236831681F06B9
:1040F00051F8045B02D45F0648BFADB23160D90706
:1041000044BF43F0200323601DB11023ACE72748D0
:10411000E9E7236823F020032360F6E71646BDE7AE
:10412000336825686169181D30602E061B6801D54B
:10413000196002E06806FBD519800023236116464A
:10414000BCE733681A1D32601E6862680021304681
:10415000FCF74EF808B1801B6060636823610023A0
:1041600084F84330AAE72369324649464046D0479F
:104170000130ADD023689B0713D4E068039B9842BD
:10418000B8BF1846A6E70123324649464046D04705
:1041900001309DD00135E36803995B1AAB42F2DC34
:1041A000EBE7002504F11906F5E700BFDD42000842
:1041B000EE420008884210B501EB020402D98442A5
:1041C000234607D8431EA14208D011F8012B03F85B
:1041D000012FF8E7024401468A4200D110BD13F8CE
:1041E000014D02F8014DF7E738B5064D00230446AE
:1041F00008462B60FCF7F8FE431C02D12B6803B184
:10420000236038BD340300200A44914200F1FF339B
:1042100000D1704710B511F8014B03F8014F9142DE
:10422000F9D110BD2DE9F041804615460C4621B963
:10423000BDE8F0411146FFF74BBC2AB9FFF7DCFBA4
:1042400000242046BDE8F08100F01AF885420646B9
:1042500002D8B5EB500FF4D829464046FFF738FC9A
:1042600007460028ECD0B5422A46214628BF3246F0
:10427000FFF7CAFF21464046FFF7BEFB3C46E0E79A
:1042800051F8043C181F002BBCBF0B58C0187047D6
:10429000F8B500BFF8BC08BC9E467047F8B500BF33
:0842A000F8BC08BC9E46704703
:1042A800040800F00000000025750A000000000066
:1042B80000000000010203040607080900000000CE
:1042C80001020304232D302B2000686C4C00656626
:1042D800674546470030313233343536373839414F
:1042E8004243444546003031323334353637383965
:0842F800616263646566000069
:08430000E0BEFF7F0100000098
:04430800C5010008E3
:04430C00A101000803
:104310001050FC0101000000436F6E6E656374690C
:104320006F6E207375636365737366756C6C0000E4
:10433000436F6E6E656374696F6E20756E7375631F
:104340006365737366756C6C2C2073746F70696E23
:1043500067206865726520001000FF0051000800AA
:10436000000000000024F400100000000100000024
:104370006400002000000000FC0100206402002016
:10438000CC0200200000000000000000000000003F
:10439000000000000000000000000000000000001D
:1043A000000000000000000000000000000000000D
:1043B00000000000000000000000000000000000FD
:040000050800107966
:00000001FF
